{
  "contractName": "kyc",
  "abi": [
    {
      "constant": true,
      "inputs": [
        {
          "name": "",
          "type": "uint256"
        }
      ],
      "name": "allRequests",
      "outputs": [
        {
          "name": "userName",
          "type": "string"
        },
        {
          "name": "bankAddress",
          "type": "address"
        },
        {
          "name": "isAllowed",
          "type": "bool"
        },
        {
          "name": "isResponded",
          "type": "bool"
        }
      ],
      "payable": false,
      "stateMutability": "view",
      "type": "function",
      "signature": "0x9bf4ec2f"
    },
    {
      "constant": true,
      "inputs": [],
      "name": "getEventFlag",
      "outputs": [
        {
          "name": "",
          "type": "int256"
        }
      ],
      "payable": false,
      "stateMutability": "view",
      "type": "function",
      "signature": "0x082404ba"
    },
    {
      "constant": false,
      "inputs": [],
      "name": "isPartOfOrg",
      "outputs": [
        {
          "name": "",
          "type": "bool"
        }
      ],
      "payable": true,
      "stateMutability": "payable",
      "type": "function",
      "signature": "0xd06760da"
    },
    {
      "constant": true,
      "inputs": [],
      "name": "getIsSessionActive",
      "outputs": [
        {
          "name": "",
          "type": "bool"
        }
      ],
      "payable": false,
      "stateMutability": "view",
      "type": "function",
      "signature": "0x9e553c97"
    },
    {
      "constant": true,
      "inputs": [],
      "name": "getBankActiveAddress",
      "outputs": [
        {
          "name": "",
          "type": "address"
        }
      ],
      "payable": false,
      "stateMutability": "view",
      "type": "function",
      "signature": "0x2fd26c79"
    },
    {
      "constant": false,
      "inputs": [
        {
          "name": "add",
          "type": "address"
        }
      ],
      "name": "setBankActiveAddress",
      "outputs": [
        {
          "name": "",
          "type": "address"
        }
      ],
      "payable": true,
      "stateMutability": "payable",
      "type": "function",
      "signature": "0x43122ecd"
    },
    {
      "constant": true,
      "inputs": [],
      "name": "getActiveBankName",
      "outputs": [
        {
          "name": "",
          "type": "string"
        }
      ],
      "payable": false,
      "stateMutability": "view",
      "type": "function",
      "signature": "0x4e0d0761"
    },
    {
      "constant": false,
      "inputs": [
        {
          "name": "uname",
          "type": "string"
        },
        {
          "name": "password",
          "type": "string"
        },
        {
          "name": "eth",
          "type": "address"
        }
      ],
      "name": "addBank",
      "outputs": [
        {
          "name": "",
          "type": "uint256"
        }
      ],
      "payable": true,
      "stateMutability": "payable",
      "type": "function",
      "signature": "0x47f88689"
    },
    {
      "constant": false,
      "inputs": [
        {
          "name": "Uname",
          "type": "string"
        },
        {
          "name": "password",
          "type": "string"
        },
        {
          "name": "addr",
          "type": "address"
        }
      ],
      "name": "checkBank",
      "outputs": [
        {
          "name": "",
          "type": "string"
        }
      ],
      "payable": true,
      "stateMutability": "payable",
      "type": "function",
      "signature": "0xd3f241e0"
    },
    {
      "constant": false,
      "inputs": [],
      "name": "viewBank",
      "outputs": [
        {
          "name": "",
          "type": "string"
        },
        {
          "name": "",
          "type": "uint256"
        }
      ],
      "payable": true,
      "stateMutability": "payable",
      "type": "function",
      "signature": "0xb9a31bf4"
    },
    {
      "constant": false,
      "inputs": [
        {
          "name": "Uname",
          "type": "string"
        },
        {
          "name": "DataHash",
          "type": "string"
        }
      ],
      "name": "addCustomer",
      "outputs": [],
      "payable": true,
      "stateMutability": "payable",
      "type": "function",
      "signature": "0x3190abc0"
    },
    {
      "constant": false,
      "inputs": [
        {
          "name": "Uname",
          "type": "string"
        }
      ],
      "name": "viewCustomer",
      "outputs": [
        {
          "name": "",
          "type": "string"
        }
      ],
      "payable": true,
      "stateMutability": "payable",
      "type": "function",
      "signature": "0x107925bb"
    },
    {
      "constant": false,
      "inputs": [
        {
          "name": "uName",
          "type": "string"
        },
        {
          "name": "password",
          "type": "string"
        }
      ],
      "name": "verifyCustomer",
      "outputs": [
        {
          "name": "",
          "type": "uint256"
        }
      ],
      "payable": true,
      "stateMutability": "payable",
      "type": "function",
      "signature": "0xb57224af"
    },
    {
      "constant": false,
      "inputs": [
        {
          "name": "Uname",
          "type": "string"
        },
        {
          "name": "DataHash",
          "type": "string"
        }
      ],
      "name": "modifyCustomer",
      "outputs": [],
      "payable": true,
      "stateMutability": "payable",
      "type": "function",
      "signature": "0xf72860ca"
    },
    {
      "constant": false,
      "inputs": [
        {
          "name": "uname",
          "type": "string"
        },
        {
          "name": "bankAdd",
          "type": "address"
        }
      ],
      "name": "sendRequest",
      "outputs": [],
      "payable": true,
      "stateMutability": "payable",
      "type": "function",
      "signature": "0x004939ed"
    },
    {
      "constant": false,
      "inputs": [
        {
          "name": "uname",
          "type": "string"
        },
        {
          "name": "bankAdd",
          "type": "address"
        },
        {
          "name": "response",
          "type": "bool"
        }
      ],
      "name": "processRequest",
      "outputs": [],
      "payable": true,
      "stateMutability": "payable",
      "type": "function",
      "signature": "0x9e4562a3"
    },
    {
      "constant": false,
      "inputs": [
        {
          "name": "uname",
          "type": "string"
        },
        {
          "name": "bankAdd",
          "type": "address"
        }
      ],
      "name": "isAllowed",
      "outputs": [
        {
          "name": "",
          "type": "uint256"
        }
      ],
      "payable": true,
      "stateMutability": "payable",
      "type": "function",
      "signature": "0x79f6909e"
    }
  ],
  "bytecode": "0x60806040527fffffffffffffffffffffffffffffffffffffffffffffffffffffffffffffffff60005534801561003457600080fd5b50612a4b806100446000396000f3fe6080604052600436106100f0576000357c0100000000000000000000000000000000000000000000000000000000900463ffffffff1680624939ed146100f5578063082404ba146101d0578063107925bb146101fb5780632fd26c791461032f5780633190abc01461038657806343122ecd146104d857806347f886891461055c5780634e0d0761146106e257806379f6909e146107725780639bf4ec2f146108615780639e4562a31461095e5780639e553c9714610a45578063b57224af14610a74578063b9a31bf414610bda578063d06760da14610c64578063d3f241e014610c86578063f72860ca14610e71575b600080fd5b6101ce6004803603604081101561010b57600080fd5b810190808035906020019064010000000081111561012857600080fd5b82018360208201111561013a57600080fd5b8035906020019184600183028401116401000000008311171561015c57600080fd5b91908080601f016020809104026020016040519081016040528093929190818152602001838380828437600081840152601f19601f820116905080830192505050505050509192919290803573ffffffffffffffffffffffffffffffffffffffff169060200190929190505050610fc3565b005b3480156101dc57600080fd5b506101e561137c565b6040518082815260200191505060405180910390f35b6102b46004803603602081101561021157600080fd5b810190808035906020019064010000000081111561022e57600080fd5b82018360208201111561024057600080fd5b8035906020019184600183028401116401000000008311171561026257600080fd5b91908080601f016020809104026020016040519081016040528093929190818152602001838380828437600081840152601f19601f820116905080830192505050505050509192919290505050611385565b6040518080602001828103825283818151815260200191508051906020019080838360005b838110156102f45780820151818401526020810190506102d9565b50505050905090810190601f1680156103215780820380516001836020036101000a031916815260200191505b509250505060405180910390f35b34801561033b57600080fd5b506103446114e1565b604051808273ffffffffffffffffffffffffffffffffffffffff1673ffffffffffffffffffffffffffffffffffffffff16815260200191505060405180910390f35b6104d66004803603604081101561039c57600080fd5b81019080803590602001906401000000008111156103b957600080fd5b8201836020820111156103cb57600080fd5b803590602001918460018302840111640100000000831117156103ed57600080fd5b91908080601f016020809104026020016040519081016040528093929190818152602001838380828437600081840152601f19601f8201169050808301925050505050505091929192908035906020019064010000000081111561045057600080fd5b82018360208201111561046257600080fd5b8035906020019184600183028401116401000000008311171561048457600080fd5b91908080601f016020809104026020016040519081016040528093929190818152602001838380828437600081840152601f19601f82011690508083019250505050505050919291929050505061150a565b005b61051a600480360360208110156104ee57600080fd5b81019080803573ffffffffffffffffffffffffffffffffffffffff1690602001909291905050506118bf565b604051808273ffffffffffffffffffffffffffffffffffffffff1673ffffffffffffffffffffffffffffffffffffffff16815260200191505060405180910390f35b6106cc6004803603606081101561057257600080fd5b810190808035906020019064010000000081111561058f57600080fd5b8201836020820111156105a157600080fd5b803590602001918460018302840111640100000000831117156105c357600080fd5b91908080601f016020809104026020016040519081016040528093929190818152602001838380828437600081840152601f19601f8201169050808301925050505050505091929192908035906020019064010000000081111561062657600080fd5b82018360208201111561063857600080fd5b8035906020019184600183028401116401000000008311171561065a57600080fd5b91908080601f016020809104026020016040519081016040528093929190818152602001838380828437600081840152601f19601f820116905080830192505050505050509192919290803573ffffffffffffffffffffffffffffffffffffffff169060200190929190505050611906565b6040518082815260200191505060405180910390f35b3480156106ee57600080fd5b506106f7611aef565b6040518080602001828103825283818151815260200191508051906020019080838360005b8381101561073757808201518184015260208101905061071c565b50505050905090810190601f1680156107645780820380516001836020036101000a031916815260200191505b509250505060405180910390f35b61084b6004803603604081101561078857600080fd5b81019080803590602001906401000000008111156107a557600080fd5b8201836020820111156107b757600080fd5b803590602001918460018302840111640100000000831117156107d957600080fd5b91908080601f016020809104026020016040519081016040528093929190818152602001838380828437600081840152601f19601f820116905080830192505050505050509192919290803573ffffffffffffffffffffffffffffffffffffffff169060200190929190505050611bf2565b6040518082815260200191505060405180910390f35b34801561086d57600080fd5b5061089a6004803603602081101561088457600080fd5b8101908080359060200190929190505050611f5e565b60405180806020018573ffffffffffffffffffffffffffffffffffffffff1673ffffffffffffffffffffffffffffffffffffffff1681526020018415151515815260200183151515158152602001828103825286818151815260200191508051906020019080838360005b83811015610920578082015181840152602081019050610905565b50505050905090810190601f16801561094d5780820380516001836020036101000a031916815260200191505b509550505050505060405180910390f35b610a436004803603606081101561097457600080fd5b810190808035906020019064010000000081111561099157600080fd5b8201836020820111156109a357600080fd5b803590602001918460018302840111640100000000831117156109c557600080fd5b91908080601f016020809104026020016040519081016040528093929190818152602001838380828437600081840152601f19601f820116905080830192505050505050509192919290803573ffffffffffffffffffffffffffffffffffffffff16906020019092919080351515906020019092919050505061206f565b005b348015610a5157600080fd5b50610a5a6121b0565b604051808215151515815260200191505060405180910390f35b610bc460048036036040811015610a8a57600080fd5b8101908080359060200190640100000000811115610aa757600080fd5b820183602082011115610ab957600080fd5b80359060200191846001830284011164010000000083111715610adb57600080fd5b91908080601f016020809104026020016040519081016040528093929190818152602001838380828437600081840152601f19601f82011690508083019250505050505050919291929080359060200190640100000000811115610b3e57600080fd5b820183602082011115610b5057600080fd5b80359060200191846001830284011164010000000083111715610b7257600080fd5b91908080601f016020809104026020016040519081016040528093929190818152602001838380828437600081840152601f19601f8201169050808301925050505050505091929192905050506121c7565b6040518082815260200191505060405180910390f35b610be2612259565b6040518080602001838152602001828103825284818151815260200191508051906020019080838360005b83811015610c28578082015181840152602081019050610c0d565b50505050905090810190601f168015610c555780820380516001836020036101000a031916815260200191505b50935050505060405180910390f35b610c6c6123c8565b604051808215151515815260200191505060405180910390f35b610df660048036036060811015610c9c57600080fd5b8101908080359060200190640100000000811115610cb957600080fd5b820183602082011115610ccb57600080fd5b80359060200191846001830284011164010000000083111715610ced57600080fd5b91908080601f016020809104026020016040519081016040528093929190818152602001838380828437600081840152601f19601f82011690508083019250505050505050919291929080359060200190640100000000811115610d5057600080fd5b820183602082011115610d6257600080fd5b80359060200191846001830284011164010000000083111715610d8457600080fd5b91908080601f016020809104026020016040519081016040528093929190818152602001838380828437600081840152601f19601f820116905080830192505050505050509192919290803573ffffffffffffffffffffffffffffffffffffffff169060200190929190505050612471565b6040518080602001828103825283818151815260200191508051906020019080838360005b83811015610e36578082015181840152602081019050610e1b565b50505050905090810190601f168015610e635780820380516001836020036101000a031916815260200191505b509250505060405180910390f35b610fc160048036036040811015610e8757600080fd5b8101908080359060200190640100000000811115610ea457600080fd5b820183602082011115610eb657600080fd5b80359060200191846001830284011164010000000083111715610ed857600080fd5b91908080601f016020809104026020016040519081016040528093929190818152602001838380828437600081840152601f19601f82011690508083019250505050505050919291929080359060200190640100000000811115610f3b57600080fd5b820183602082011115610f4d57600080fd5b80359060200191846001830284011164010000000083111715610f6f57600080fd5b91908080601f016020809104026020016040519081016040528093929190818152602001838380828437600081840152601f19601f82011690508083019250505050505050919291929050505061262c565b005b7fffffffffffffffffffffffffffffffffffffffffffffffffffffffffffffffff60008190555060008090505b60048054905081101561125c5761102660048281548110151561100f57fe5b9060005260206000209060020201600001846127f3565b801561109d57508173ffffffffffffffffffffffffffffffffffffffff1660048281548110151561105357fe5b906000526020600020906002020160010160009054906101000a900473ffffffffffffffffffffffffffffffffffffffff1673ffffffffffffffffffffffffffffffffffffffff16145b80156110da5750600115156004828154811015156110b757fe5b906000526020600020906002020160010160149054906101000a900460ff161515145b80156111175750600115156004828154811015156110f457fe5b906000526020600020906002020160010160159054906101000a900460ff161515145b1561112a57600160008190555050611378565b61115360048281548110151561113c57fe5b9060005260206000209060020201600001846127f3565b80156111ca57508173ffffffffffffffffffffffffffffffffffffffff1660048281548110151561118057fe5b906000526020600020906002020160010160009054906101000a900473ffffffffffffffffffffffffffffffffffffffff1673ffffffffffffffffffffffffffffffffffffffff16145b1561124f5760006004828154811015156111e057fe5b906000526020600020906002020160010160146101000a81548160ff021916908315150217905550600060048281548110151561121957fe5b906000526020600020906002020160010160156101000a81548160ff021916908315150217905550600260008190555050611378565b8080600101915050610ff0565b5060046080604051908101604052808481526020018373ffffffffffffffffffffffffffffffffffffffff168152602001600015158152602001600015158152509080600181540180825580915050906001820390600052602060002090600202016000909192909190915060008201518160000190805190602001906112e492919061297a565b5060208201518160010160006101000a81548173ffffffffffffffffffffffffffffffffffffffff021916908373ffffffffffffffffffffffffffffffffffffffff16021790555060408201518160010160146101000a81548160ff02191690831515021790555060608201518160010160156101000a81548160ff02191690831515021790555050505060026000819055505b5050565b60008054905090565b606061138f6123c8565b15156113d2576040805190810160405280600e81526020017f4163636573732064656e6965642100000000000000000000000000000000000081525090506114dc565b6002826040518082805190602001908083835b60208310151561140a57805182526020820191506020810190506020830392506113e5565b6001836020036101000a03801982511681845116808217855250505050505090500191505090815260200160405180910390206001018054600181600116156101000203166002900480601f0160208091040260200160405190810160405280929190818152602001828054600181600116156101000203166002900480156114d45780601f106114a9576101008083540402835291602001916114d4565b820191906000526020600020905b8154815290600101906020018083116114b757829003601f168201915b505050505090505b919050565b60006001809054906101000a900473ffffffffffffffffffffffffffffffffffffffff16905090565b7fffffffffffffffffffffffffffffffffffffffffffffffffffffffffffffffff6000819055506115396123c8565b151561154c576007600081905550611757565b6115c36002836040518082805190602001908083835b6020831015156115875780518252602082019150602081019050602083039250611562565b6001836020036101000a0380198251168184511680821785525050505050509050019150509081526020016040518091039020600001836127f3565b156115d5576002600081905550611756565b6080604051908101604052808381526020018281526020013373ffffffffffffffffffffffffffffffffffffffff1681526020016040805190810160405280600481526020017f6e756c6c000000000000000000000000000000000000000000000000000000008152508152506002836040518082805190602001908083835b60208310151561167a5780518252602082019150602081019050602083039250611655565b6001836020036101000a038019825116818451168082178552505050505050905001915050908152602001604051809103902060008201518160000190805190602001906116c992919061297a565b5060208201518160010190805190602001906116e692919061297a565b5060408201518160020160006101000a81548173ffffffffffffffffffffffffffffffffffffffff021916908373ffffffffffffffffffffffffffffffffffffffff160217905550606082015181600301908051906020019061174a92919061297a565b50905050600080819055505b5b600360003373ffffffffffffffffffffffffffffffffffffffff1673ffffffffffffffffffffffffffffffffffffffff1681526020019081526020016000206003016000815480929190600101919050555060046080604051908101604052808481526020013373ffffffffffffffffffffffffffffffffffffffff1681526020016001151581526020016001151581525090806001815401808255809150509060018203906000526020600020906002020160009091929091909150600082015181600001908051906020019061183092919061297a565b5060208201518160010160006101000a81548173ffffffffffffffffffffffffffffffffffffffff021916908373ffffffffffffffffffffffffffffffffffffffff16021790555060408201518160010160146101000a81548160ff02191690831515021790555060608201518160010160156101000a81548160ff0219169083151502179055505050505050565b6000816001806101000a81548173ffffffffffffffffffffffffffffffffffffffff021916908373ffffffffffffffffffffffffffffffffffffffff160217905550919050565b60007fffffffffffffffffffffffffffffffffffffffffffffffffffffffffffffffff6000819055503373ffffffffffffffffffffffffffffffffffffffff16600360008473ffffffffffffffffffffffffffffffffffffffff1673ffffffffffffffffffffffffffffffffffffffff16815260200190815260200160002060020160009054906101000a900473ffffffffffffffffffffffffffffffffffffffff1673ffffffffffffffffffffffffffffffffffffffff1614156119d657600160008190555060019050611ae8565b6080604051908101604052808581526020018481526020018373ffffffffffffffffffffffffffffffffffffffff1681526020016000815250600360008473ffffffffffffffffffffffffffffffffffffffff1673ffffffffffffffffffffffffffffffffffffffff1681526020019081526020016000206000820151816000019080519060200190611a6a92919061297a565b506020820151816001019080519060200190611a8792919061297a565b5060408201518160020160006101000a81548173ffffffffffffffffffffffffffffffffffffffff021916908373ffffffffffffffffffffffffffffffffffffffff1602179055506060820151816003015590505060008081905550600090505b9392505050565b6060600360006001809054906101000a900473ffffffffffffffffffffffffffffffffffffffff1673ffffffffffffffffffffffffffffffffffffffff1673ffffffffffffffffffffffffffffffffffffffff1681526020019081526020016000206000018054600181600116156101000203166002900480601f016020809104026020016040519081016040528092919081815260200182805460018160011615610100020316600290048015611be85780601f10611bbd57610100808354040283529160200191611be8565b820191906000526020600020905b815481529060010190602001808311611bcb57829003601f168201915b5050505050905090565b600080600090505b600480549050811015611f5257611c30600482815481101515611c1957fe5b9060005260206000209060020201600001856127f3565b8015611ca757508273ffffffffffffffffffffffffffffffffffffffff16600482815481101515611c5d57fe5b906000526020600020906002020160010160009054906101000a900473ffffffffffffffffffffffffffffffffffffffff1673ffffffffffffffffffffffffffffffffffffffff16145b8015611ce4575060001515600482815481101515611cc157fe5b906000526020600020906002020160010160159054906101000a900460ff161515145b15611cf3576001915050611f58565b611d1c600482815481101515611d0557fe5b9060005260206000209060020201600001856127f3565b8015611d9357508273ffffffffffffffffffffffffffffffffffffffff16600482815481101515611d4957fe5b906000526020600020906002020160010160009054906101000a900473ffffffffffffffffffffffffffffffffffffffff1673ffffffffffffffffffffffffffffffffffffffff16145b8015611dd0575060011515600482815481101515611dad57fe5b906000526020600020906002020160010160159054906101000a900460ff161515145b8015611e0d575060011515600482815481101515611dea57fe5b906000526020600020906002020160010160149054906101000a900460ff161515145b15611e1c576002915050611f58565b611e45600482815481101515611e2e57fe5b9060005260206000209060020201600001856127f3565b8015611ebc57508273ffffffffffffffffffffffffffffffffffffffff16600482815481101515611e7257fe5b906000526020600020906002020160010160009054906101000a900473ffffffffffffffffffffffffffffffffffffffff1673ffffffffffffffffffffffffffffffffffffffff16145b8015611ef9575060011515600482815481101515611ed657fe5b906000526020600020906002020160010160159054906101000a900460ff161515145b8015611f36575060001515600482815481101515611f1357fe5b906000526020600020906002020160010160149054906101000a900460ff161515145b15611f45576003915050611f58565b8080600101915050611bfa565b50600490505b92915050565b600481815481101515611f6d57fe5b9060005260206000209060020201600091509050806000018054600181600116156101000203166002900480601f0160208091040260200160405190810160405280929190818152602001828054600181600116156101000203166002900480156120195780601f10611fee57610100808354040283529160200191612019565b820191906000526020600020905b815481529060010190602001808311611ffc57829003601f168201915b5050505050908060010160009054906101000a900473ffffffffffffffffffffffffffffffffffffffff16908060010160149054906101000a900460ff16908060010160159054906101000a900460ff16905084565b60008090505b6004805490508110156121aa576120ab60048281548110151561209457fe5b9060005260206000209060020201600001856127f3565b801561212257508273ffffffffffffffffffffffffffffffffffffffff166004828154811015156120d857fe5b906000526020600020906002020160010160009054906101000a900473ffffffffffffffffffffffffffffffffffffffff1673ffffffffffffffffffffffffffffffffffffffff16145b1561219d578160048281548110151561213757fe5b906000526020600020906002020160010160146101000a81548160ff021916908315150217905550600160048281548110151561217057fe5b906000526020600020906002020160010160156101000a81548160ff0219169083151502179055506121aa565b8080600101915050612075565b50505050565b6000600160009054906101000a900460ff16905090565b60006122406002846040518082805190602001908083835b60208310151561220457805182526020820191506020810190506020830392506121df565b6001836020036101000a0380198251168184511680821785525050505050509050019150509081526020016040518091039020600301836127f3565b1561224e5760019050612253565b600090505b92915050565b60606000600360006001809054906101000a900473ffffffffffffffffffffffffffffffffffffffff1673ffffffffffffffffffffffffffffffffffffffff1673ffffffffffffffffffffffffffffffffffffffff168152602001908152602001600020600001600360006001809054906101000a900473ffffffffffffffffffffffffffffffffffffffff1673ffffffffffffffffffffffffffffffffffffffff1673ffffffffffffffffffffffffffffffffffffffff16815260200190815260200160002060030154818054600181600116156101000203166002900480601f0160208091040260200160405190810160405280929190818152602001828054600181600116156101000203166002900480156123b95780601f1061238e576101008083540402835291602001916123b9565b820191906000526020600020905b81548152906001019060200180831161239c57829003601f168201915b50505050509150915091509091565b60003373ffffffffffffffffffffffffffffffffffffffff16600360003373ffffffffffffffffffffffffffffffffffffffff1673ffffffffffffffffffffffffffffffffffffffff16815260200190815260200160002060020160009054906101000a900473ffffffffffffffffffffffffffffffffffffffff1673ffffffffffffffffffffffffffffffffffffffff161415612469576001905061246e565b600090505b90565b60606124be600360008473ffffffffffffffffffffffffffffffffffffffff1673ffffffffffffffffffffffffffffffffffffffff168152602001908152602001600020600101846127f3565b80156125115750612510600360008473ffffffffffffffffffffffffffffffffffffffff1673ffffffffffffffffffffffffffffffffffffffff168152602001908152602001600020600001856127f3565b5b80156125aa57508173ffffffffffffffffffffffffffffffffffffffff16600360008473ffffffffffffffffffffffffffffffffffffffff1673ffffffffffffffffffffffffffffffffffffffff16815260200190815260200160002060020160009054906101000a900473ffffffffffffffffffffffffffffffffffffffff1673ffffffffffffffffffffffffffffffffffffffff16145b156125ec576040805190810160405280600181526020017f30000000000000000000000000000000000000000000000000000000000000008152509050612625565b6040805190810160405280600281526020017f2d3100000000000000000000000000000000000000000000000000000000000081525090505b9392505050565b7fffffffffffffffffffffffffffffffffffffffffffffffffffffffffffffffff60008190555061265b6123c8565b151561266e5760076000819055506127ef565b6080604051908101604052808381526020018281526020013373ffffffffffffffffffffffffffffffffffffffff1681526020016040805190810160405280600481526020017f6e756c6c000000000000000000000000000000000000000000000000000000008152508152506002836040518082805190602001908083835b60208310151561271357805182526020820191506020810190506020830392506126ee565b6001836020036101000a0380198251168184511680821785525050505050509050019150509081526020016040518091039020600082015181600001908051906020019061276292919061297a565b50602082015181600101908051906020019061277f92919061297a565b5060408201518160020160006101000a81548173ffffffffffffffffffffffffffffffffffffffff021916908373ffffffffffffffffffffffffffffffffffffffff16021790555060608201518160030190805190602001906127e392919061297a565b50905050600080819055505b5050565b600080839050606083905080518280546001816001161561010002031660029004905014151561282857600092505050612974565b60008090505b8280546001816001161561010002031660029004905081101561296c57818181518110151561285957fe5b9060200101517f010000000000000000000000000000000000000000000000000000000000000090047f0100000000000000000000000000000000000000000000000000000000000000027effffffffffffffffffffffffffffffffffffffffffffffffffffffffffffff1916838281546001816001161561010002031660029004811015156128e557fe5b8154600116156129045790600052602060002090602091828204019190065b9054901a7f0100000000000000000000000000000000000000000000000000000000000000027effffffffffffffffffffffffffffffffffffffffffffffffffffffffffffff191614151561295f5760009350505050612974565b808060010191505061282e565b506001925050505b92915050565b828054600181600116156101000203166002900490600052602060002090601f016020900481019282601f106129bb57805160ff19168380011785556129e9565b828001600101855582156129e9579182015b828111156129e85782518255916020019190600101906129cd565b5b5090506129f691906129fa565b5090565b612a1c91905b80821115612a18576000816000905550600101612a00565b5090565b9056fea165627a7a723058200d615014513692a428344fc3a89df5d0cda5eb1107062a120c6e4b5f3efca5c00029",
  "source": "pragma solidity >=0.4.21 <0.7.0;\n\ncontract kyc{\n    int eventFlag = -1;\n\n    bool isSessionActive;\n\n    address bankActiveAddress;\n\n    struct Customer {\n        string userName;\n        string dataHash;\n        address bankAdd;\n        string password;\n    }\n\n    struct Bank {\n        string name;\n        string password;\n        address ethAddress;\n        uint256 totalKycCount;\n    }\n\n    struct Request {\n        string userName;\n        address bankAddress;\n        bool isAllowed;\n        bool isResponded;\n    }\n\n    mapping(string => Customer) allCustomers;\n    mapping(address => Bank) organisation;\n    Request[] public allRequests;\n\n    function getEventFlag() public view returns (int)\n    {\n        return eventFlag;\n    }\n\n    function stringsEqual(string storage _a, string memory _b) internal view returns (bool)\n    {\n        bytes storage a = bytes(_a);\n        bytes memory b = bytes(_b);\n        if (a.length != b.length) return false;\n\n        for (uint256 i = 0; i < a.length; i++) {\n            if (a[i] != b[i]) return false;\n        }\n        return true;\n    }\n\n    function isPartOfOrg() public payable returns (bool) {\n            if (organisation[msg.sender].ethAddress == msg.sender) return true; return false;\n    }\n\n    function getIsSessionActive() public view returns(bool)\n    {\n        return isSessionActive;\n    }\n\n    function getBankActiveAddress() public view returns (address)\n    {\n        return bankActiveAddress;\n    }\n\n    function setBankActiveAddress(address add) public payable returns (address)\n    {\n        bankActiveAddress = add;\n    }\n\n    function getActiveBankName() public view returns (string memory)\n    {\n        return organisation[bankActiveAddress].name;\n    }\n\n    function addBank(string memory uname, string memory password, address eth)\n        public\n        payable\n        returns (uint256)\n    {\n        eventFlag = -1;\n        if(organisation[eth].ethAddress == msg.sender){\n            eventFlag = 1;\n            return 1;\n        }\n        organisation[eth] = Bank(uname, password, eth, 0);\n        eventFlag = 0;\n        return 0;\n    }\n\n    function checkBank(string memory Uname, string memory password, address addr) public payable returns(string memory) {\n            if(stringsEqual(organisation[addr].password, password) && stringsEqual(organisation[addr].name, Uname) && organisation[addr].ethAddress == addr) {\n\n                return \"0\";\n            }\n        return \"-1\";\n    }\n\n    function viewBank() public payable returns(string memory, uint)\n    {\n        return (organisation[bankActiveAddress].name, organisation[bankActiveAddress].totalKycCount);\n    }\n\n\n    function addCustomer(string memory Uname, string memory DataHash) public payable\n    {\n        eventFlag = -1;\n        if (!isPartOfOrg()) eventFlag = 7;\n        else if (stringsEqual(allCustomers[Uname].userName, Uname)) eventFlag = 2;\n\n        else {\n            allCustomers[Uname] = Customer(\n            Uname,\n            DataHash,\n            msg.sender,\n            \"null\"\n            );\n            eventFlag = 0;\n        }\n        organisation[msg.sender].totalKycCount++;\n        allRequests.push(Request(Uname, msg.sender, true, true));\n    }\n\n    function viewCustomer(string memory Uname) public payable returns(string memory) {\n        if(!isPartOfOrg())\n            return \"Access denied!\";\n        return allCustomers[Uname].dataHash;\n    }\n\n    function verifyCustomer(string memory uName, string memory password) public payable returns(uint) {\n        if(stringsEqual(allCustomers[uName].password,password)){\n            return 1;\n        }\n        return 0;\n    }\n\n    function modifyCustomer(string memory Uname, string memory DataHash) public payable\n    {\n        eventFlag = -1;\n        if (!isPartOfOrg()) eventFlag = 7;\n        else {\n            allCustomers[Uname] = Customer(\n            Uname,\n            DataHash,\n            msg.sender,\n            \"null\"\n            );\n            eventFlag = 0;\n        }\n    }\n\n    function sendRequest(string memory uname, address bankAdd) public payable {\n        eventFlag = -1;\n        for(uint i = 0; i < allRequests.length; i++)\n        {\n            if(stringsEqual(allRequests[i].userName, uname) && allRequests[i].bankAddress == bankAdd && allRequests[i].isAllowed == true && allRequests[i].isResponded == true){\n                eventFlag = 1;\n                return;\n            }\n\n            if(stringsEqual(allRequests[i].userName, uname) && allRequests[i].bankAddress == bankAdd){\n                allRequests[i].isAllowed = false;\n                allRequests[i].isResponded = false;\n                eventFlag = 2;\n                return;\n            }\n        }\n\n        allRequests.push(Request(uname, bankAdd, false, false));\n        eventFlag = 2;\n    }\n\n    function processRequest(string memory uname, address bankAdd, bool response) public payable{\n        for(uint i = 0; i < allRequests.length; i++)\n        {\n            if(stringsEqual(allRequests[i].userName, uname) && allRequests[i].bankAddress == bankAdd){\n                allRequests[i].isAllowed = response;\n                allRequests[i].isResponded = true;\n                break;\n            }\n        }\n    }\n\n    function isAllowed(string memory uname, address bankAdd) public payable returns(uint)\n    {\n        for(uint i = 0; i < allRequests.length; i++)\n        {\n            if(stringsEqual(allRequests[i].userName, uname) && allRequests[i].bankAddress == bankAdd && allRequests[i].isResponded == false) {\n                return 1; //not yet responded\n            }\n\n            else if(stringsEqual(allRequests[i].userName, uname) && allRequests[i].bankAddress == bankAdd && allRequests[i].isResponded == true && allRequests[i].isAllowed == true){\n                return 2; //allowed\n            }\n\n            else if(stringsEqual(allRequests[i].userName, uname) && allRequests[i].bankAddress == bankAdd && allRequests[i].isResponded == true && allRequests[i].isAllowed == false){\n                return 3; //not allowed\n            }\n        }\n        return 4; //no request sent\n    }\n}",
  "sourcePath": "/home/anoop/Documents/major/kyc_root/kyc_contracts/contracts/kyc.sol",
  "compiler": {
    "name": "solc",
    "version": "0.5.0+commit.1d4f565a.Emscripten.clang"
  },
  "schemaVersion": "3.0.2",
  "updatedAt": "2022-06-24T11:20:23.364Z",
  "devdoc": {
    "methods": {}
  },
  "userdoc": {
    "methods": {}
  }
}