{
  "contractName": "kyc",
  "abi": [
    {
      "constant": true,
      "inputs": [
        {
          "name": "",
          "type": "uint256"
        }
      ],
      "name": "returnRequests",
      "outputs": [
        {
          "name": "userName",
          "type": "string"
        },
        {
          "name": "bankAddress",
          "type": "address"
        },
        {
          "name": "bankName",
          "type": "string"
        },
        {
          "name": "isAllowed",
          "type": "bool"
        },
        {
          "name": "isResponded",
          "type": "bool"
        }
      ],
      "payable": false,
      "stateMutability": "view",
      "type": "function",
      "signature": "0x47788bbe"
    },
    {
      "constant": true,
      "inputs": [
        {
          "name": "",
          "type": "uint256"
        }
      ],
      "name": "allRequests",
      "outputs": [
        {
          "name": "userName",
          "type": "string"
        },
        {
          "name": "bankAddress",
          "type": "address"
        },
        {
          "name": "bankName",
          "type": "string"
        },
        {
          "name": "isAllowed",
          "type": "bool"
        },
        {
          "name": "isResponded",
          "type": "bool"
        }
      ],
      "payable": false,
      "stateMutability": "view",
      "type": "function",
      "signature": "0x9bf4ec2f"
    },
    {
      "constant": true,
      "inputs": [],
      "name": "getEventFlag",
      "outputs": [
        {
          "name": "",
          "type": "int256"
        }
      ],
      "payable": false,
      "stateMutability": "view",
      "type": "function",
      "signature": "0x082404ba"
    },
    {
      "constant": false,
      "inputs": [],
      "name": "isPartOfOrg",
      "outputs": [
        {
          "name": "",
          "type": "bool"
        }
      ],
      "payable": true,
      "stateMutability": "payable",
      "type": "function",
      "signature": "0xd06760da"
    },
    {
      "constant": true,
      "inputs": [],
      "name": "getIsSessionActive",
      "outputs": [
        {
          "name": "",
          "type": "bool"
        }
      ],
      "payable": false,
      "stateMutability": "view",
      "type": "function",
      "signature": "0x9e553c97"
    },
    {
      "constant": true,
      "inputs": [],
      "name": "getBankActiveAddress",
      "outputs": [
        {
          "name": "",
          "type": "address"
        }
      ],
      "payable": false,
      "stateMutability": "view",
      "type": "function",
      "signature": "0x2fd26c79"
    },
    {
      "constant": false,
      "inputs": [
        {
          "name": "add",
          "type": "address"
        }
      ],
      "name": "setBankActiveAddress",
      "outputs": [
        {
          "name": "",
          "type": "address"
        }
      ],
      "payable": true,
      "stateMutability": "payable",
      "type": "function",
      "signature": "0x43122ecd"
    },
    {
      "constant": false,
      "inputs": [
        {
          "name": "uName",
          "type": "string"
        }
      ],
      "name": "setActiveCustomer",
      "outputs": [
        {
          "name": "",
          "type": "address"
        }
      ],
      "payable": true,
      "stateMutability": "payable",
      "type": "function",
      "signature": "0xa5a805af"
    },
    {
      "constant": true,
      "inputs": [],
      "name": "getActiveCustomer",
      "outputs": [
        {
          "name": "",
          "type": "string"
        }
      ],
      "payable": false,
      "stateMutability": "view",
      "type": "function",
      "signature": "0x580663e4"
    },
    {
      "constant": true,
      "inputs": [],
      "name": "getActiveBankName",
      "outputs": [
        {
          "name": "",
          "type": "string"
        }
      ],
      "payable": false,
      "stateMutability": "view",
      "type": "function",
      "signature": "0x4e0d0761"
    },
    {
      "constant": true,
      "inputs": [
        {
          "name": "uName",
          "type": "string"
        }
      ],
      "name": "getCustomerETHAdd",
      "outputs": [
        {
          "name": "",
          "type": "address"
        }
      ],
      "payable": false,
      "stateMutability": "view",
      "type": "function",
      "signature": "0x9e1d4505"
    },
    {
      "constant": true,
      "inputs": [],
      "name": "getRequests",
      "outputs": [
        {
          "components": [
            {
              "name": "userName",
              "type": "string"
            },
            {
              "name": "bankAddress",
              "type": "address"
            },
            {
              "name": "bankName",
              "type": "string"
            },
            {
              "name": "isAllowed",
              "type": "bool"
            },
            {
              "name": "isResponded",
              "type": "bool"
            }
          ],
          "name": "",
          "type": "tuple[]"
        }
      ],
      "payable": false,
      "stateMutability": "view",
      "type": "function",
      "signature": "0x8813ce12"
    },
    {
      "constant": false,
      "inputs": [
        {
          "name": "uname",
          "type": "string"
        },
        {
          "name": "password",
          "type": "string"
        },
        {
          "name": "eth",
          "type": "address"
        }
      ],
      "name": "addBank",
      "outputs": [
        {
          "name": "",
          "type": "uint256"
        }
      ],
      "payable": true,
      "stateMutability": "payable",
      "type": "function",
      "signature": "0x47f88689"
    },
    {
      "constant": false,
      "inputs": [
        {
          "name": "Uname",
          "type": "string"
        },
        {
          "name": "password",
          "type": "string"
        },
        {
          "name": "addr",
          "type": "address"
        }
      ],
      "name": "checkBank",
      "outputs": [
        {
          "name": "",
          "type": "string"
        }
      ],
      "payable": true,
      "stateMutability": "payable",
      "type": "function",
      "signature": "0xd3f241e0"
    },
    {
      "constant": false,
      "inputs": [],
      "name": "viewBank",
      "outputs": [
        {
          "name": "",
          "type": "string"
        },
        {
          "name": "",
          "type": "uint256"
        }
      ],
      "payable": true,
      "stateMutability": "payable",
      "type": "function",
      "signature": "0xb9a31bf4"
    },
    {
      "constant": false,
      "inputs": [
        {
          "name": "Uname",
          "type": "string"
        },
        {
          "name": "DataHash",
          "type": "string"
        },
        {
          "name": "password",
          "type": "string"
        },
        {
          "name": "add",
          "type": "address"
        },
        {
          "name": "verifiedBy",
          "type": "string"
        }
      ],
      "name": "addCustomer",
      "outputs": [],
      "payable": true,
      "stateMutability": "payable",
      "type": "function",
      "signature": "0x385a35d9"
    },
    {
      "constant": false,
      "inputs": [
        {
          "name": "uName",
          "type": "string"
        }
      ],
      "name": "getVerifiedBy",
      "outputs": [
        {
          "name": "",
          "type": "string"
        }
      ],
      "payable": true,
      "stateMutability": "payable",
      "type": "function",
      "signature": "0xe5b2e8f9"
    },
    {
      "constant": false,
      "inputs": [
        {
          "name": "Uname",
          "type": "string"
        }
      ],
      "name": "viewCustomer",
      "outputs": [
        {
          "name": "",
          "type": "string"
        }
      ],
      "payable": true,
      "stateMutability": "payable",
      "type": "function",
      "signature": "0x107925bb"
    },
    {
      "constant": false,
      "inputs": [
        {
          "name": "uName",
          "type": "string"
        },
        {
          "name": "password",
          "type": "string"
        }
      ],
      "name": "verifyCustomer",
      "outputs": [
        {
          "name": "",
          "type": "uint256"
        }
      ],
      "payable": true,
      "stateMutability": "payable",
      "type": "function",
      "signature": "0xb57224af"
    },
    {
      "constant": false,
      "inputs": [
        {
          "name": "Uname",
          "type": "string"
        },
        {
          "name": "DataHash",
          "type": "string"
        }
      ],
      "name": "modifyCustomer",
      "outputs": [],
      "payable": true,
      "stateMutability": "payable",
      "type": "function",
      "signature": "0xf72860ca"
    },
    {
      "constant": false,
      "inputs": [
        {
          "name": "uName",
          "type": "string"
        },
        {
          "name": "password",
          "type": "string"
        }
      ],
      "name": "changePasswordCus",
      "outputs": [],
      "payable": true,
      "stateMutability": "payable",
      "type": "function",
      "signature": "0x37d57087"
    },
    {
      "constant": false,
      "inputs": [
        {
          "name": "uname",
          "type": "string"
        },
        {
          "name": "bankAdd",
          "type": "address"
        }
      ],
      "name": "sendRequest",
      "outputs": [],
      "payable": true,
      "stateMutability": "payable",
      "type": "function",
      "signature": "0x004939ed"
    },
    {
      "constant": false,
      "inputs": [],
      "name": "filterRequests",
      "outputs": [],
      "payable": true,
      "stateMutability": "payable",
      "type": "function",
      "signature": "0xc58dbbcf"
    },
    {
      "constant": false,
      "inputs": [
        {
          "name": "uname",
          "type": "string"
        },
        {
          "name": "bankAdd",
          "type": "address"
        },
        {
          "name": "response",
          "type": "bool"
        }
      ],
      "name": "processRequest",
      "outputs": [],
      "payable": true,
      "stateMutability": "payable",
      "type": "function",
      "signature": "0x9e4562a3"
    },
    {
      "constant": false,
      "inputs": [
        {
          "name": "uname",
          "type": "string"
        },
        {
          "name": "bankAdd",
          "type": "address"
        }
      ],
      "name": "isAllowed",
      "outputs": [
        {
          "name": "",
          "type": "uint256"
        }
      ],
      "payable": true,
      "stateMutability": "payable",
      "type": "function",
      "signature": "0x79f6909e"
    }
  ],
  "bytecode": "0x60806040527fffffffffffffffffffffffffffffffffffffffffffffffffffffffffffffffff60005534801561003457600080fd5b50613569806100446000396000f3fe608060405260043610610148576000357c0100000000000000000000000000000000000000000000000000000000900463ffffffff1680624939ed1461014d578063082404ba14610169578063107925bb146101945780632fd26c79146101c457806337d57087146101ef578063385a35d91461020b57806343122ecd1461022757806347788bbe1461025757806347f88689146102985780634e0d0761146102c8578063580663e4146102f357806379f6909e1461031e5780638813ce121461034e5780639bf4ec2f146103795780639e1d4505146103ba5780639e4562a3146103f75780639e553c9714610413578063a5a805af1461043e578063b57224af1461046e578063b9a31bf41461049e578063c58dbbcf146104bd578063d06760da146104c7578063d3f241e0146104e5578063e5b2e8f914610515578063f72860ca14610545575b600080fd5b61016760048036036101629190810190612e54565b610561565b005b34801561017557600080fd5b5061017e610944565b60405161018b91906132e5565b60405180910390f35b6101ae60048036036101a99190810190612e13565b61094d565b6040516101bb9190613300565b60405180910390f35b3480156101d057600080fd5b506101d9610a5d565b6040516101e6919061328d565b60405180910390f35b61020960048036036102049190810190612f0f565b610a86565b005b61022560048036036102209190810190612ffa565b610b0d565b005b610241600480360361023c9190810190612dea565b610edd565b60405161024e919061328d565b60405180910390f35b34801561026357600080fd5b5061027e600480360361027991908101906130d1565b610f24565b60405161028f959493929190613352565b60405180910390f35b6102b260048036036102ad9190810190612f7b565b6110d3565b6040516102bf91906133b3565b60405180910390f35b3480156102d457600080fd5b506102dd6112bc565b6040516102ea9190613300565b60405180910390f35b3480156102ff57600080fd5b506103086113bf565b6040516103159190613300565b60405180910390f35b61033860048036036103339190810190612e54565b611461565b60405161034591906133b3565b60405180910390f35b34801561035a57600080fd5b506103636117cd565b60405161037091906132a8565b60405180910390f35b34801561038557600080fd5b506103a0600480360361039b91908101906130d1565b6119fd565b6040516103b1959493929190613352565b60405180910390f35b3480156103c657600080fd5b506103e160048036036103dc9190810190612e13565b611bac565b6040516103ee919061328d565b60405180910390f35b610411600480360361040c9190810190612ea8565b611c44565b005b34801561041f57600080fd5b50610428611d85565b60405161043591906132ca565b60405180910390f35b61045860048036036104539190810190612e13565b611d9c565b604051610465919061328d565b60405180910390f35b61048860048036036104839190810190612f0f565b611dba565b60405161049591906133b3565b60405180910390f35b6104a66120e2565b6040516104b4929190613322565b60405180910390f35b6104c5612251565b005b6104cf6124e6565b6040516104dc91906132ca565b60405180910390f35b6104ff60048036036104fa9190810190612f7b565b61258f565b60405161050c9190613300565b60405180910390f35b61052f600480360361052a9190810190612e13565b61274a565b60405161053c9190613300565b60405180910390f35b61055f600480360361055a9190810190612f0f565b61285a565b005b7fffffffffffffffffffffffffffffffffffffffffffffffffffffffffffffffff60008190555060008090505b6005805490508110156107fa576105c46005828154811015156105ad57fe5b90600052602060002090600402016000018461292b565b801561063b57508173ffffffffffffffffffffffffffffffffffffffff166005828154811015156105f157fe5b906000526020600020906004020160010160009054906101000a900473ffffffffffffffffffffffffffffffffffffffff1673ffffffffffffffffffffffffffffffffffffffff16145b801561067857506001151560058281548110151561065557fe5b906000526020600020906004020160030160009054906101000a900460ff161515145b80156106b557506001151560058281548110151561069257fe5b906000526020600020906004020160030160019054906101000a900460ff161515145b156106c857600160008190555050610940565b6106f16005828154811015156106da57fe5b90600052602060002090600402016000018461292b565b801561076857508173ffffffffffffffffffffffffffffffffffffffff1660058281548110151561071e57fe5b906000526020600020906004020160010160009054906101000a900473ffffffffffffffffffffffffffffffffffffffff1673ffffffffffffffffffffffffffffffffffffffff16145b156107ed57600060058281548110151561077e57fe5b906000526020600020906004020160030160006101000a81548160ff02191690831515021790555060006005828154811015156107b757fe5b906000526020600020906004020160030160016101000a81548160ff021916908315150217905550600260008190555050610940565b808060010191505061058e565b50600560a0604051908101604052808481526020018373ffffffffffffffffffffffffffffffffffffffff1681526020016108336112bc565b81526020016000151581526020016000151581525090806001815401808255809150509060018203906000526020600020906004020160009091929091909150600082015181600001908051906020019061088f929190612ab2565b5060208201518160010160006101000a81548173ffffffffffffffffffffffffffffffffffffffff021916908373ffffffffffffffffffffffffffffffffffffffff16021790555060408201518160020190805190602001906108f3929190612ab2565b5060608201518160030160006101000a81548160ff02191690831515021790555060808201518160030160016101000a81548160ff02191690831515021790555050505060026000819055505b5050565b60008054905090565b60606003826040518082805190602001908083835b6020831015156109875780518252602082019150602081019050602083039250610962565b6001836020036101000a03801982511681845116808217855250505050505090500191505090815260200160405180910390206001018054600181600116156101000203166002900480601f016020809104026020016040519081016040528092919081815260200182805460018160011615610100020316600290048015610a515780601f10610a2657610100808354040283529160200191610a51565b820191906000526020600020905b815481529060010190602001808311610a3457829003601f168201915b50505050509050919050565b60006001809054906101000a900473ffffffffffffffffffffffffffffffffffffffff16905090565b806003836040518082805190602001908083835b602083101515610abf5780518252602082019150602081019050602083039250610a9a565b6001836020036101000a03801982511681845116808217855250505050505090500191505090815260200160405180910390206003019080519060200190610b08929190612b32565b505050565b7fffffffffffffffffffffffffffffffffffffffffffffffffffffffffffffffff600081905550610b3c6124e6565b1515610b4f576007600081905550610d48565b610bc66003866040518082805190602001908083835b602083101515610b8a5780518252602082019150602081019050602083039250610b65565b6001836020036101000a03801982511681845116808217855250505050505090500191505090815260200160405180910390206000018661292b565b15610bd8576002600081905550610d47565b60a0604051908101604052808681526020018581526020018373ffffffffffffffffffffffffffffffffffffffff168152602001848152602001828152506003866040518082805190602001908083835b602083101515610c4e5780518252602082019150602081019050602083039250610c29565b6001836020036101000a03801982511681845116808217855250505050505090500191505090815260200160405180910390206000820151816000019080519060200190610c9d929190612ab2565b506020820151816001019080519060200190610cba929190612ab2565b5060408201518160020160006101000a81548173ffffffffffffffffffffffffffffffffffffffff021916908373ffffffffffffffffffffffffffffffffffffffff1602179055506060820151816003019080519060200190610d1e929190612ab2565b506080820151816004019080519060200190610d3b929190612ab2565b50905050600080819055505b5b600460003373ffffffffffffffffffffffffffffffffffffffff1673ffffffffffffffffffffffffffffffffffffffff16815260200190815260200160002060030160008154809291906001019190505550600560a0604051908101604052808781526020013373ffffffffffffffffffffffffffffffffffffffff168152602001610dd26112bc565b815260200160011515815260200160011515815250908060018154018082558091505090600182039060005260206000209060040201600090919290919091506000820151816000019080519060200190610e2e929190612ab2565b5060208201518160010160006101000a81548173ffffffffffffffffffffffffffffffffffffffff021916908373ffffffffffffffffffffffffffffffffffffffff1602179055506040820151816002019080519060200190610e92929190612ab2565b5060608201518160030160006101000a81548160ff02191690831515021790555060808201518160030160016101000a81548160ff0219169083151502179055505050505050505050565b6000816001806101000a81548173ffffffffffffffffffffffffffffffffffffffff021916908373ffffffffffffffffffffffffffffffffffffffff160217905550919050565b600681815481101515610f3357fe5b9060005260206000209060040201600091509050806000018054600181600116156101000203166002900480601f016020809104026020016040519081016040528092919081815260200182805460018160011615610100020316600290048015610fdf5780601f10610fb457610100808354040283529160200191610fdf565b820191906000526020600020905b815481529060010190602001808311610fc257829003601f168201915b5050505050908060010160009054906101000a900473ffffffffffffffffffffffffffffffffffffffff1690806002018054600181600116156101000203166002900480601f0160208091040260200160405190810160405280929190818152602001828054600181600116156101000203166002900480156110a35780601f10611078576101008083540402835291602001916110a3565b820191906000526020600020905b81548152906001019060200180831161108657829003601f168201915b5050505050908060030160009054906101000a900460ff16908060030160019054906101000a900460ff16905085565b60007fffffffffffffffffffffffffffffffffffffffffffffffffffffffffffffffff6000819055503373ffffffffffffffffffffffffffffffffffffffff16600460008473ffffffffffffffffffffffffffffffffffffffff1673ffffffffffffffffffffffffffffffffffffffff16815260200190815260200160002060020160009054906101000a900473ffffffffffffffffffffffffffffffffffffffff1673ffffffffffffffffffffffffffffffffffffffff1614156111a3576001600081905550600190506112b5565b6080604051908101604052808581526020018481526020018373ffffffffffffffffffffffffffffffffffffffff1681526020016000815250600460008473ffffffffffffffffffffffffffffffffffffffff1673ffffffffffffffffffffffffffffffffffffffff1681526020019081526020016000206000820151816000019080519060200190611237929190612ab2565b506020820151816001019080519060200190611254929190612ab2565b5060408201518160020160006101000a81548173ffffffffffffffffffffffffffffffffffffffff021916908373ffffffffffffffffffffffffffffffffffffffff1602179055506060820151816003015590505060008081905550600090505b9392505050565b6060600460006001809054906101000a900473ffffffffffffffffffffffffffffffffffffffff1673ffffffffffffffffffffffffffffffffffffffff1673ffffffffffffffffffffffffffffffffffffffff1681526020019081526020016000206000018054600181600116156101000203166002900480601f0160208091040260200160405190810160405280929190818152602001828054600181600116156101000203166002900480156113b55780601f1061138a576101008083540402835291602001916113b5565b820191906000526020600020905b81548152906001019060200180831161139857829003601f168201915b5050505050905090565b606060028054600181600116156101000203166002900480601f0160208091040260200160405190810160405280929190818152602001828054600181600116156101000203166002900480156114575780601f1061142c57610100808354040283529160200191611457565b820191906000526020600020905b81548152906001019060200180831161143a57829003601f168201915b5050505050905090565b600080600090505b6005805490508110156117c15761149f60058281548110151561148857fe5b90600052602060002090600402016000018561292b565b801561151657508273ffffffffffffffffffffffffffffffffffffffff166005828154811015156114cc57fe5b906000526020600020906004020160010160009054906101000a900473ffffffffffffffffffffffffffffffffffffffff1673ffffffffffffffffffffffffffffffffffffffff16145b801561155357506000151560058281548110151561153057fe5b906000526020600020906004020160030160019054906101000a900460ff161515145b156115625760019150506117c7565b61158b60058281548110151561157457fe5b90600052602060002090600402016000018561292b565b801561160257508273ffffffffffffffffffffffffffffffffffffffff166005828154811015156115b857fe5b906000526020600020906004020160010160009054906101000a900473ffffffffffffffffffffffffffffffffffffffff1673ffffffffffffffffffffffffffffffffffffffff16145b801561163f57506001151560058281548110151561161c57fe5b906000526020600020906004020160030160019054906101000a900460ff161515145b801561167c57506001151560058281548110151561165957fe5b906000526020600020906004020160030160009054906101000a900460ff161515145b1561168b5760029150506117c7565b6116b460058281548110151561169d57fe5b90600052602060002090600402016000018561292b565b801561172b57508273ffffffffffffffffffffffffffffffffffffffff166005828154811015156116e157fe5b906000526020600020906004020160010160009054906101000a900473ffffffffffffffffffffffffffffffffffffffff1673ffffffffffffffffffffffffffffffffffffffff16145b801561176857506001151560058281548110151561174557fe5b906000526020600020906004020160030160019054906101000a900460ff161515145b80156117a557506000151560058281548110151561178257fe5b906000526020600020906004020160030160009054906101000a900460ff161515145b156117b45760039150506117c7565b8080600101915050611469565b50600490505b92915050565b60606006805480602002602001604051908101604052809291908181526020016000905b828210156119f4578382906000526020600020906004020160a06040519081016040529081600082018054600181600116156101000203166002900480601f0160208091040260200160405190810160405280929190818152602001828054600181600116156101000203166002900480156118ae5780601f10611883576101008083540402835291602001916118ae565b820191906000526020600020905b81548152906001019060200180831161189157829003601f168201915b505050505081526020016001820160009054906101000a900473ffffffffffffffffffffffffffffffffffffffff1673ffffffffffffffffffffffffffffffffffffffff1673ffffffffffffffffffffffffffffffffffffffff168152602001600282018054600181600116156101000203166002900480601f0160208091040260200160405190810160405280929190818152602001828054600181600116156101000203166002900480156119a65780601f1061197b576101008083540402835291602001916119a6565b820191906000526020600020905b81548152906001019060200180831161198957829003601f168201915b505050505081526020016003820160009054906101000a900460ff161515151581526020016003820160019054906101000a900460ff161515151581525050815260200190600101906117f1565b50505050905090565b600581815481101515611a0c57fe5b9060005260206000209060040201600091509050806000018054600181600116156101000203166002900480601f016020809104026020016040519081016040528092919081815260200182805460018160011615610100020316600290048015611ab85780601f10611a8d57610100808354040283529160200191611ab8565b820191906000526020600020905b815481529060010190602001808311611a9b57829003601f168201915b5050505050908060010160009054906101000a900473ffffffffffffffffffffffffffffffffffffffff1690806002018054600181600116156101000203166002900480601f016020809104026020016040519081016040528092919081815260200182805460018160011615610100020316600290048015611b7c5780601f10611b5157610100808354040283529160200191611b7c565b820191906000526020600020905b815481529060010190602001808311611b5f57829003601f168201915b5050505050908060030160009054906101000a900460ff16908060030160019054906101000a900460ff16905085565b60006003826040518082805190602001908083835b602083101515611be65780518252602082019150602081019050602083039250611bc1565b6001836020036101000a038019825116818451168082178552505050505050905001915050908152602001604051809103902060020160009054906101000a900473ffffffffffffffffffffffffffffffffffffffff169050919050565b60008090505b600580549050811015611d7f57611c80600582815481101515611c6957fe5b90600052602060002090600402016000018561292b565b8015611cf757508273ffffffffffffffffffffffffffffffffffffffff16600582815481101515611cad57fe5b906000526020600020906004020160010160009054906101000a900473ffffffffffffffffffffffffffffffffffffffff1673ffffffffffffffffffffffffffffffffffffffff16145b15611d725781600582815481101515611d0c57fe5b906000526020600020906004020160030160006101000a81548160ff0219169083151502179055506001600582815481101515611d4557fe5b906000526020600020906004020160030160016101000a81548160ff021916908315150217905550611d7f565b8080600101915050611c4a565b50505050565b6000600160009054906101000a900460ff16905090565b60008160029080519060200190611db4929190612b32565b50919050565b6000611e336003846040518082805190602001908083835b602083101515611df75780518252602082019150602081019050602083039250611dd2565b6001836020036101000a03801982511681845116808217855250505050505090500191505090815260200160405180910390206003018361292b565b1515611e4257600190506120dc565b611eb96003846040518082805190602001908083835b602083101515611e7d5780518252602082019150602081019050602083039250611e58565b6001836020036101000a03801982511681845116808217855250505050505090500191505090815260200160405180910390206003018361292b565b8015611f7e57503373ffffffffffffffffffffffffffffffffffffffff166003846040518082805190602001908083835b602083101515611f0f5780518252602082019150602081019050602083039250611eea565b6001836020036101000a038019825116818451168082178552505050505050905001915050908152602001604051809103902060020160009054906101000a900473ffffffffffffffffffffffffffffffffffffffff1673ffffffffffffffffffffffffffffffffffffffff16145b15611f8c57600290506120dc565b6120036003846040518082805190602001908083835b602083101515611fc75780518252602082019150602081019050602083039250611fa2565b6001836020036101000a03801982511681845116808217855250505050505090500191505090815260200160405180910390206003018361292b565b80156120c957503373ffffffffffffffffffffffffffffffffffffffff166003846040518082805190602001908083835b6020831015156120595780518252602082019150602081019050602083039250612034565b6001836020036101000a038019825116818451168082178552505050505050905001915050908152602001604051809103902060020160009054906101000a900473ffffffffffffffffffffffffffffffffffffffff1673ffffffffffffffffffffffffffffffffffffffff1614155b156120d757600390506120dc565b600090505b92915050565b60606000600460006001809054906101000a900473ffffffffffffffffffffffffffffffffffffffff1673ffffffffffffffffffffffffffffffffffffffff1673ffffffffffffffffffffffffffffffffffffffff168152602001908152602001600020600001600460006001809054906101000a900473ffffffffffffffffffffffffffffffffffffffff1673ffffffffffffffffffffffffffffffffffffffff1673ffffffffffffffffffffffffffffffffffffffff16815260200190815260200160002060030154818054600181600116156101000203166002900480601f0160208091040260200160405190810160405280929190818152602001828054600181600116156101000203166002900480156122425780601f1061221757610100808354040283529160200191612242565b820191906000526020600020905b81548152906001019060200180831161222557829003601f168201915b50505050509150915091509091565b6006600061225f9190612bb2565b60008090505b6005805490508110156124e35761233560058281548110151561228457fe5b906000526020600020906004020160000160028054600181600116156101000203166002900480601f01602080910402602001604051908101604052809291908181526020018280546001816001161561010002031660029004801561232b5780601f106123005761010080835404028352916020019161232b565b820191906000526020600020905b81548152906001019060200180831161230e57829003601f168201915b505050505061292b565b801561237257506000151560058281548110151561234f57fe5b906000526020600020906004020160030160019054906101000a900460ff161515145b156124d657600660058281548110151561238857fe5b906000526020600020906004020190806001815401808255809150509060018203906000526020600020906004020160009091929091909150600082018160000190805460018160011615610100020316600290046123e8929190612bd6565b506001820160009054906101000a900473ffffffffffffffffffffffffffffffffffffffff168160010160006101000a81548173ffffffffffffffffffffffffffffffffffffffff021916908373ffffffffffffffffffffffffffffffffffffffff16021790555060028201816002019080546001816001161561010002031660029004612477929190612bd6565b506003820160009054906101000a900460ff168160030160006101000a81548160ff0219169083151502179055506003820160019054906101000a900460ff168160030160016101000a81548160ff0219169083151502179055505050505b8080600101915050612265565b50565b60003373ffffffffffffffffffffffffffffffffffffffff16600460003373ffffffffffffffffffffffffffffffffffffffff1673ffffffffffffffffffffffffffffffffffffffff16815260200190815260200160002060020160009054906101000a900473ffffffffffffffffffffffffffffffffffffffff1673ffffffffffffffffffffffffffffffffffffffff161415612587576001905061258c565b600090505b90565b60606125dc600460008473ffffffffffffffffffffffffffffffffffffffff1673ffffffffffffffffffffffffffffffffffffffff1681526020019081526020016000206001018461292b565b801561262f575061262e600460008473ffffffffffffffffffffffffffffffffffffffff1673ffffffffffffffffffffffffffffffffffffffff1681526020019081526020016000206000018561292b565b5b80156126c857508173ffffffffffffffffffffffffffffffffffffffff16600460008473ffffffffffffffffffffffffffffffffffffffff1673ffffffffffffffffffffffffffffffffffffffff16815260200190815260200160002060020160009054906101000a900473ffffffffffffffffffffffffffffffffffffffff1673ffffffffffffffffffffffffffffffffffffffff16145b1561270a576040805190810160405280600181526020017f30000000000000000000000000000000000000000000000000000000000000008152509050612743565b6040805190810160405280600281526020017f2d3100000000000000000000000000000000000000000000000000000000000081525090505b9392505050565b60606003826040518082805190602001908083835b602083101515612784578051825260208201915060208101905060208303925061275f565b6001836020036101000a03801982511681845116808217855250505050505090500191505090815260200160405180910390206004018054600181600116156101000203166002900480601f01602080910402602001604051908101604052809291908181526020018280546001816001161561010002031660029004801561284e5780601f106128235761010080835404028352916020019161284e565b820191906000526020600020905b81548152906001019060200180831161283157829003601f168201915b50505050509050919050565b7fffffffffffffffffffffffffffffffffffffffffffffffffffffffffffffffff6000819055506128896124e6565b151561289c576007600081905550612927565b806003836040518082805190602001908083835b6020831015156128d557805182526020820191506020810190506020830392506128b0565b6001836020036101000a0380198251168184511680821785525050505050509050019150509081526020016040518091039020600101908051906020019061291e929190612b32565b50600080819055505b5050565b600080839050606083905080518280546001816001161561010002031660029004905014151561296057600092505050612aac565b60008090505b82805460018160011615610100020316600290049050811015612aa457818181518110151561299157fe5b9060200101517f010000000000000000000000000000000000000000000000000000000000000090047f0100000000000000000000000000000000000000000000000000000000000000027effffffffffffffffffffffffffffffffffffffffffffffffffffffffffffff191683828154600181600116156101000203166002900481101515612a1d57fe5b815460011615612a3c5790600052602060002090602091828204019190065b9054901a7f0100000000000000000000000000000000000000000000000000000000000000027effffffffffffffffffffffffffffffffffffffffffffffffffffffffffffff1916141515612a975760009350505050612aac565b8080600101915050612966565b506001925050505b92915050565b828054600181600116156101000203166002900490600052602060002090601f016020900481019282601f10612af357805160ff1916838001178555612b21565b82800160010185558215612b21579182015b82811115612b20578251825591602001919060010190612b05565b5b509050612b2e9190612c5d565b5090565b828054600181600116156101000203166002900490600052602060002090601f016020900481019282601f10612b7357805160ff1916838001178555612ba1565b82800160010185558215612ba1579182015b82811115612ba0578251825591602001919060010190612b85565b5b509050612bae9190612c5d565b5090565b5080546000825560040290600052602060002090810190612bd39190612c82565b50565b828054600181600116156101000203166002900490600052602060002090601f016020900481019282601f10612c0f5780548555612c4c565b82800160010185558215612c4c57600052602060002091601f016020900482015b82811115612c4b578254825591600101919060010190612c30565b5b509050612c599190612c5d565b5090565b612c7f91905b80821115612c7b576000816000905550600101612c63565b5090565b90565b612d0d91905b80821115612d095760008082016000612ca19190612d10565b6001820160006101000a81549073ffffffffffffffffffffffffffffffffffffffff0219169055600282016000612cd89190612d10565b6003820160006101000a81549060ff02191690556003820160016101000a81549060ff021916905550600401612c88565b5090565b90565b50805460018160011615610100020316600290046000825580601f10612d365750612d55565b601f016020900490600052602060002090810190612d549190612c5d565b5b50565b6000612d6482356134b4565b905092915050565b6000612d7882356134c6565b905092915050565b600082601f8301121515612d9357600080fd5b8135612da6612da1826133fb565b6133ce565b91508082526020830160208301858383011115612dc257600080fd5b612dcd8382846134dc565b50505092915050565b6000612de282356134d2565b905092915050565b600060208284031215612dfc57600080fd5b6000612e0a84828501612d58565b91505092915050565b600060208284031215612e2557600080fd5b600082013567ffffffffffffffff811115612e3f57600080fd5b612e4b84828501612d80565b91505092915050565b60008060408385031215612e6757600080fd5b600083013567ffffffffffffffff811115612e8157600080fd5b612e8d85828601612d80565b9250506020612e9e85828601612d58565b9150509250929050565b600080600060608486031215612ebd57600080fd5b600084013567ffffffffffffffff811115612ed757600080fd5b612ee386828701612d80565b9350506020612ef486828701612d58565b9250506040612f0586828701612d6c565b9150509250925092565b60008060408385031215612f2257600080fd5b600083013567ffffffffffffffff811115612f3c57600080fd5b612f4885828601612d80565b925050602083013567ffffffffffffffff811115612f6557600080fd5b612f7185828601612d80565b9150509250929050565b600080600060608486031215612f9057600080fd5b600084013567ffffffffffffffff811115612faa57600080fd5b612fb686828701612d80565b935050602084013567ffffffffffffffff811115612fd357600080fd5b612fdf86828701612d80565b9250506040612ff086828701612d58565b9150509250925092565b600080600080600060a0868803121561301257600080fd5b600086013567ffffffffffffffff81111561302c57600080fd5b61303888828901612d80565b955050602086013567ffffffffffffffff81111561305557600080fd5b61306188828901612d80565b945050604086013567ffffffffffffffff81111561307e57600080fd5b61308a88828901612d80565b935050606061309b88828901612d58565b925050608086013567ffffffffffffffff8111156130b857600080fd5b6130c488828901612d80565b9150509295509295909350565b6000602082840312156130e357600080fd5b60006130f184828501612dd6565b91505092915050565b61310381613462565b82525050565b600061311482613434565b8084526020840193508360208202850161312d85613427565b60005b84811015613166578383038852613148838351613201565b925061315382613455565b9150602088019750600181019050613130565b508196508694505050505092915050565b61318081613474565b82525050565b61318f81613480565b82525050565b60006131a08261344a565b8084526131b48160208601602086016134eb565b6131bd8161351e565b602085010191505092915050565b60006131d68261343f565b8084526131ea8160208601602086016134eb565b6131f38161351e565b602085010191505092915050565b600060a083016000830151848203600086015261321e82826131cb565b915050602083015161323360208601826130fa565b506040830151848203604086015261324b82826131cb565b91505060608301516132606060860182613177565b5060808301516132736080860182613177565b508091505092915050565b613287816134aa565b82525050565b60006020820190506132a260008301846130fa565b92915050565b600060208201905081810360008301526132c28184613109565b905092915050565b60006020820190506132df6000830184613177565b92915050565b60006020820190506132fa6000830184613186565b92915050565b6000602082019050818103600083015261331a8184613195565b905092915050565b6000604082019050818103600083015261333c8185613195565b905061334b602083018461327e565b9392505050565b600060a082019050818103600083015261336c81886131cb565b905061337b60208301876130fa565b818103604083015261338d81866131cb565b905061339c6060830185613177565b6133a96080830184613177565b9695505050505050565b60006020820190506133c8600083018461327e565b92915050565b6000604051905081810181811067ffffffffffffffff821117156133f157600080fd5b8060405250919050565b600067ffffffffffffffff82111561341257600080fd5b601f19601f8301169050602081019050919050565b6000602082019050919050565b600081519050919050565b600081519050919050565b600081519050919050565b6000602082019050919050565b600061346d8261348a565b9050919050565b60008115159050919050565b6000819050919050565b600073ffffffffffffffffffffffffffffffffffffffff82169050919050565b6000819050919050565b60006134bf8261348a565b9050919050565b60008115159050919050565b6000819050919050565b82818337600083830152505050565b60005b838110156135095780820151818401526020810190506134ee565b83811115613518576000848401525b50505050565b6000601f19601f830116905091905056fea265627a7a723058202c5dbd3201c66fd3867798f588abe60b3ff6100f731950e732f7c757089fb3946c6578706572696d656e74616cf50037",
  "source": "pragma solidity >=0.4.21 <0.9.0;\npragma experimental ABIEncoderV2;\n\ncontract kyc{\n    int eventFlag = -1;\n\n    bool isSessionActive;\n\n    address bankActiveAddress;\n\n    string customerActive;\n\n    struct Customer {\n        string userName;\n        string dataHash;\n        address ethAdd;\n        string password;\n        string verifiedBy;\n    }\n\n    struct Bank {\n        string name;\n        string password;\n        address ethAddress;\n        uint256 totalKycCount;\n    }\n\n    struct Request {\n        string userName;\n        address bankAddress;\n        string bankName;\n        bool isAllowed;\n        bool isResponded;\n    }\n\n    mapping(string => Customer) allCustomers;\n    mapping(address => Bank) organisation;\n    Request[] public allRequests;\n    Request[] public returnRequests;\n\n    function getEventFlag() public view returns (int)\n    {\n        return eventFlag;\n    }\n\n    function stringsEqual(string storage _a, string memory _b) internal view returns (bool)\n    {\n        bytes storage a = bytes(_a);\n        bytes memory b = bytes(_b);\n        if (a.length != b.length) return false;\n\n        for (uint256 i = 0; i < a.length; i++) {\n            if (a[i] != b[i]) return false;\n        }\n        return true;\n    }\n\n    function isPartOfOrg() public payable returns (bool) {\n            if (organisation[msg.sender].ethAddress == msg.sender) return true; return false;\n    }\n\n    function getIsSessionActive() public view returns(bool)\n    {\n        return isSessionActive;\n    }\n\n    function getBankActiveAddress() public view returns (address)\n    {\n        return bankActiveAddress;\n    }\n\n    function setBankActiveAddress(address add) public payable returns (address)\n    {\n        bankActiveAddress = add;\n    }\n\n    function setActiveCustomer(string memory uName) public payable returns (address)\n    {\n        customerActive = uName;\n    }\n    \n    function getActiveCustomer() public view returns (string memory)\n    {\n        return customerActive;\n    }\n\n    function getActiveBankName() public view returns (string memory)\n    {\n        return organisation[bankActiveAddress].name;\n    }\n\n    function getCustomerETHAdd(string memory uName) public view returns (address)\n    {\n        return allCustomers[uName].ethAdd;\n    }\n\n    function getRequests() public view returns (Request[] memory)\n    {\n        return returnRequests;\n    }\n\n    function addBank(string memory uname, string memory password, address eth)\n        public\n        payable\n        returns (uint256)\n    {\n        eventFlag = -1;\n        if(organisation[eth].ethAddress == msg.sender){\n            eventFlag = 1;\n            return 1;\n        }\n        organisation[eth] = Bank(uname, password, eth, 0);\n        eventFlag = 0;\n        return 0;\n    }\n\n    function checkBank(string memory Uname, string memory password, address addr) public payable returns(string memory) {\n            if(stringsEqual(organisation[addr].password, password) && stringsEqual(organisation[addr].name, Uname) && organisation[addr].ethAddress == addr) {\n\n                return \"0\";\n            }\n        return \"-1\";\n    }\n\n    function viewBank() public payable returns(string memory, uint)\n    {\n        return (organisation[bankActiveAddress].name, organisation[bankActiveAddress].totalKycCount);\n    }\n\n\n    function addCustomer(string memory Uname, string memory DataHash, string memory password, address add, string memory verifiedBy) public payable\n    {\n        eventFlag = -1;\n        if (!isPartOfOrg()) eventFlag = 7;\n        else if (stringsEqual(allCustomers[Uname].userName, Uname)) eventFlag = 2;\n\n        else {\n            allCustomers[Uname] = Customer(\n            Uname,\n            DataHash,\n            add,\n            password,\n            verifiedBy\n            );\n            eventFlag = 0;\n        }\n        organisation[msg.sender].totalKycCount++;\n        allRequests.push(Request(Uname, msg.sender, getActiveBankName(), true, true));\n    }\n\n    function getVerifiedBy(string memory uName) public payable returns(string memory) {\n        return allCustomers[uName].verifiedBy;\n    }\n\n    function viewCustomer(string memory Uname) public payable returns(string memory) {\n        return allCustomers[Uname].dataHash;\n    }\n\n    function verifyCustomer(string memory uName, string memory password) public payable returns(uint) {\n        if(!stringsEqual(allCustomers[uName].password,password)){\n            return 1;\n        }\n        if(stringsEqual(allCustomers[uName].password,password) && allCustomers[uName].ethAdd == msg.sender){\n            return 2;\n        }\n        if(stringsEqual(allCustomers[uName].password,password) && allCustomers[uName].ethAdd != msg.sender)\n        {\n            return 3;\n        }\n        return 0;\n    }\n\n    function modifyCustomer(string memory Uname, string memory DataHash) public payable\n    {\n        eventFlag = -1;\n        if (!isPartOfOrg()) eventFlag = 7;\n        else {\n            allCustomers[Uname].dataHash = DataHash;\n            eventFlag = 0;\n        }\n    }\n\n    function changePasswordCus(string memory uName, string memory password) public payable\n    {\n        allCustomers[uName].password = password;\n    }\n\n    function sendRequest(string memory uname, address bankAdd) public payable {\n        eventFlag = -1;\n        for(uint i = 0; i < allRequests.length; i++)\n        {\n            if(stringsEqual(allRequests[i].userName, uname) && allRequests[i].bankAddress == bankAdd && allRequests[i].isAllowed == true && allRequests[i].isResponded == true){\n                eventFlag = 1;\n                return;\n            }\n\n            if(stringsEqual(allRequests[i].userName, uname) && allRequests[i].bankAddress == bankAdd){\n                allRequests[i].isAllowed = false;\n                allRequests[i].isResponded = false;\n                eventFlag = 2;\n                return;\n            }\n        }\n\n        allRequests.push(Request(uname, bankAdd,getActiveBankName(), false, false));\n        eventFlag = 2;\n    }\n\n    function filterRequests() public payable\n    {\n        delete returnRequests;\n        for(uint i = 0; i < allRequests.length; i++)\n        {\n            if(stringsEqual(allRequests[i].userName, customerActive) && allRequests[i].isResponded == false)\n            {\n                returnRequests.push(allRequests[i]);\n            }\n        }\n    }\n\n    function processRequest(string memory uname, address bankAdd, bool response) public payable{\n        for(uint i = 0; i < allRequests.length; i++)\n        {\n            if(stringsEqual(allRequests[i].userName, uname) && allRequests[i].bankAddress == bankAdd){\n                allRequests[i].isAllowed = response;\n                allRequests[i].isResponded = true;\n                break;\n            }\n        }\n    }\n\n    function isAllowed(string memory uname, address bankAdd) public payable returns(uint)\n    {\n        for(uint i = 0; i < allRequests.length; i++)\n        {\n            if(stringsEqual(allRequests[i].userName, uname) && allRequests[i].bankAddress == bankAdd && allRequests[i].isResponded == false) {\n                return 1; //not yet responded\n            }\n\n            else if(stringsEqual(allRequests[i].userName, uname) && allRequests[i].bankAddress == bankAdd && allRequests[i].isResponded == true && allRequests[i].isAllowed == true){\n                return 2; //allowed\n            }\n\n            else if(stringsEqual(allRequests[i].userName, uname) && allRequests[i].bankAddress == bankAdd && allRequests[i].isResponded == true && allRequests[i].isAllowed == false){\n                return 3; //not allowed\n            }\n        }\n        return 4; //no request sent\n    }\n}",
  "sourcePath": "/home/anoop/Documents/major/kyc_root/kyc_contracts/contracts/kyc.sol",
  "compiler": {
    "name": "solc",
    "version": "0.5.0+commit.1d4f565a.Emscripten.clang"
  },
  "schemaVersion": "3.0.2",
  "updatedAt": "2022-06-27T17:20:49.620Z",
  "devdoc": {
    "methods": {}
  },
  "userdoc": {
    "methods": {}
  }
}